{
  "contractName": "WineFactory",
  "abi": [
    {
      "anonymous": false,
      "inputs": [
        {
          "indexed": false,
          "internalType": "uint256",
          "name": "wineId",
          "type": "uint256"
        },
        {
          "indexed": false,
          "internalType": "string",
          "name": "producer",
          "type": "string"
        },
        {
          "indexed": false,
          "internalType": "string",
          "name": "varietal",
          "type": "string"
        },
        {
          "indexed": false,
          "internalType": "string",
          "name": "country_of_origin",
          "type": "string"
        },
        {
          "indexed": false,
          "internalType": "uint16",
          "name": "vintage",
          "type": "uint16"
        }
      ],
      "name": "NewBottle",
      "type": "event"
    },
    {
      "anonymous": false,
      "inputs": [
        {
          "indexed": true,
          "internalType": "address",
          "name": "previousOwner",
          "type": "address"
        },
        {
          "indexed": true,
          "internalType": "address",
          "name": "newOwner",
          "type": "address"
        }
      ],
      "name": "OwnershipTransferred",
      "type": "event"
    },
    {
      "constant": true,
      "inputs": [],
      "name": "isOwner",
      "outputs": [
        {
          "internalType": "bool",
          "name": "",
          "type": "bool"
        }
      ],
      "payable": false,
      "stateMutability": "view",
      "type": "function"
    },
    {
      "constant": true,
      "inputs": [],
      "name": "owner",
      "outputs": [
        {
          "internalType": "address",
          "name": "",
          "type": "address"
        }
      ],
      "payable": false,
      "stateMutability": "view",
      "type": "function"
    },
    {
      "constant": false,
      "inputs": [],
      "name": "renounceOwnership",
      "outputs": [],
      "payable": false,
      "stateMutability": "nonpayable",
      "type": "function"
    },
    {
      "constant": false,
      "inputs": [
        {
          "internalType": "address",
          "name": "newOwner",
          "type": "address"
        }
      ],
      "name": "transferOwnership",
      "outputs": [],
      "payable": false,
      "stateMutability": "nonpayable",
      "type": "function"
    },
    {
      "constant": true,
      "inputs": [
        {
          "internalType": "uint256",
          "name": "",
          "type": "uint256"
        }
      ],
      "name": "wines",
      "outputs": [
        {
          "internalType": "string",
          "name": "producer",
          "type": "string"
        },
        {
          "internalType": "string",
          "name": "varietal",
          "type": "string"
        },
        {
          "internalType": "string",
          "name": "country_of_origin",
          "type": "string"
        },
        {
          "internalType": "uint16",
          "name": "vintage",
          "type": "uint16"
        },
        {
          "internalType": "bool",
          "name": "consumed",
          "type": "bool"
        }
      ],
      "payable": false,
      "stateMutability": "view",
      "type": "function"
    },
    {
      "constant": false,
      "inputs": [
        {
          "internalType": "string",
          "name": "_producer",
          "type": "string"
        },
        {
          "internalType": "string",
          "name": "_varietal",
          "type": "string"
        },
        {
          "internalType": "string",
          "name": "_country",
          "type": "string"
        },
        {
          "internalType": "uint16",
          "name": "vintage",
          "type": "uint16"
        }
      ],
      "name": "addWineToChain",
      "outputs": [],
      "payable": false,
      "stateMutability": "nonpayable",
      "type": "function"
    }
  ],
  "bytecode": "0x6080604052336000806101000a81548173ffffffffffffffffffffffffffffffffffffffff021916908373ffffffffffffffffffffffffffffffffffffffff1602179055506000809054906101000a900473ffffffffffffffffffffffffffffffffffffffff1673ffffffffffffffffffffffffffffffffffffffff16600073ffffffffffffffffffffffffffffffffffffffff167f8be0079c531659141344cd1fd0a4f28419497f9722a3daafe3b4186f6b6457e060405160405180910390a3610dad806100cf6000396000f3fe608060405234801561001057600080fd5b50600436106100625760003560e01c806313351db314610067578063715018a614610200578063801757cb1461020a5780638da5cb5b146104015780638f32d59b1461044b578063f2fde38b1461046d575b600080fd5b6100936004803603602081101561007d57600080fd5b81019080803590602001909291905050506104b1565b604051808060200180602001806020018661ffff1661ffff16815260200185151515158152602001848103845289818151815260200191508051906020019080838360005b838110156100f35780820151818401526020810190506100d8565b50505050905090810190601f1680156101205780820380516001836020036101000a031916815260200191505b50848103835288818151815260200191508051906020019080838360005b8381101561015957808201518184015260208101905061013e565b50505050905090810190601f1680156101865780820380516001836020036101000a031916815260200191505b50848103825287818151815260200191508051906020019080838360005b838110156101bf5780820151818401526020810190506101a4565b50505050905090810190601f1680156101ec5780820380516001836020036101000a031916815260200191505b509850505050505050505060405180910390f35b6102086106d7565b005b6103ff6004803603608081101561022057600080fd5b810190808035906020019064010000000081111561023d57600080fd5b82018360208201111561024f57600080fd5b8035906020019184600183028401116401000000008311171561027157600080fd5b91908080601f016020809104026020016040519081016040528093929190818152602001838380828437600081840152601f19601f820116905080830192505050505050509192919290803590602001906401000000008111156102d457600080fd5b8201836020820111156102e657600080fd5b8035906020019184600183028401116401000000008311171561030857600080fd5b91908080601f016020809104026020016040519081016040528093929190818152602001838380828437600081840152601f19601f8201169050808301925050505050505091929192908035906020019064010000000081111561036b57600080fd5b82018360208201111561037d57600080fd5b8035906020019184600183028401116401000000008311171561039f57600080fd5b91908080601f016020809104026020016040519081016040528093929190818152602001838380828437600081840152601f19601f820116905080830192505050505050509192919290803561ffff1690602001909291905050506107a7565b005b610409610b22565b604051808273ffffffffffffffffffffffffffffffffffffffff1673ffffffffffffffffffffffffffffffffffffffff16815260200191505060405180910390f35b610453610b4b565b604051808215151515815260200191505060405180910390f35b6104af6004803603602081101561048357600080fd5b81019080803573ffffffffffffffffffffffffffffffffffffffff169060200190929190505050610ba2565b005b600381815481106104be57fe5b9060005260206000209060040201600091509050806000018054600181600116156101000203166002900480601f01602080910402602001604051908101604052809291908181526020018280546001816001161561010002031660029004801561056a5780601f1061053f5761010080835404028352916020019161056a565b820191906000526020600020905b81548152906001019060200180831161054d57829003601f168201915b505050505090806001018054600181600116156101000203166002900480601f0160208091040260200160405190810160405280929190818152602001828054600181600116156101000203166002900480156106085780601f106105dd57610100808354040283529160200191610608565b820191906000526020600020905b8154815290600101906020018083116105eb57829003601f168201915b505050505090806002018054600181600116156101000203166002900480601f0160208091040260200160405190810160405280929190818152602001828054600181600116156101000203166002900480156106a65780601f1061067b576101008083540402835291602001916106a6565b820191906000526020600020905b81548152906001019060200180831161068957829003601f168201915b5050505050908060030160009054906101000a900461ffff16908060030160029054906101000a900460ff16905085565b6106df610b4b565b6106e857600080fd5b600073ffffffffffffffffffffffffffffffffffffffff166000809054906101000a900473ffffffffffffffffffffffffffffffffffffffff1673ffffffffffffffffffffffffffffffffffffffff167f8be0079c531659141344cd1fd0a4f28419497f9722a3daafe3b4186f6b6457e060405160405180910390a360008060006101000a81548173ffffffffffffffffffffffffffffffffffffffff021916908373ffffffffffffffffffffffffffffffffffffffff160217905550565b6000600160036040518060a001604052808881526020018781526020018681526020018561ffff16815260200160001515815250908060018154018082558091505090600182039060005260206000209060040201600090919290919091506000820151816000019080519060200190610822929190610cd3565b50602082015181600101908051906020019061083f929190610cd3565b50604082015181600201908051906020019061085c929190610cd3565b5060608201518160030160006101000a81548161ffff021916908361ffff16021790555060808201518160030160026101000a81548160ff0219169083151502179055505050039050336001600083815260200190815260200160002060006101000a81548173ffffffffffffffffffffffffffffffffffffffff021916908373ffffffffffffffffffffffffffffffffffffffff16021790555061094a6001600260003373ffffffffffffffffffffffffffffffffffffffff1673ffffffffffffffffffffffffffffffffffffffff16815260200190815260200160002054610bbf90919063ffffffff16565b600260003373ffffffffffffffffffffffffffffffffffffffff1673ffffffffffffffffffffffffffffffffffffffff168152602001908152602001600020819055507fc9d32382ee149c8858d6e9bf48d4b889d759343f2088f49a169a880df9283c9c8186868686604051808681526020018060200180602001806020018561ffff1661ffff168152602001848103845288818151815260200191508051906020019080838360005b83811015610a0f5780820151818401526020810190506109f4565b50505050905090810190601f168015610a3c5780820380516001836020036101000a031916815260200191505b50848103835287818151815260200191508051906020019080838360005b83811015610a75578082015181840152602081019050610a5a565b50505050905090810190601f168015610aa25780820380516001836020036101000a031916815260200191505b50848103825286818151815260200191508051906020019080838360005b83811015610adb578082015181840152602081019050610ac0565b50505050905090810190601f168015610b085780820380516001836020036101000a031916815260200191505b509850505050505050505060405180910390a15050505050565b60008060009054906101000a900473ffffffffffffffffffffffffffffffffffffffff16905090565b60008060009054906101000a900473ffffffffffffffffffffffffffffffffffffffff1673ffffffffffffffffffffffffffffffffffffffff163373ffffffffffffffffffffffffffffffffffffffff1614905090565b610baa610b4b565b610bb357600080fd5b610bbc81610bdb565b50565b600080828401905083811015610bd157fe5b8091505092915050565b600073ffffffffffffffffffffffffffffffffffffffff168173ffffffffffffffffffffffffffffffffffffffff161415610c1557600080fd5b8073ffffffffffffffffffffffffffffffffffffffff166000809054906101000a900473ffffffffffffffffffffffffffffffffffffffff1673ffffffffffffffffffffffffffffffffffffffff167f8be0079c531659141344cd1fd0a4f28419497f9722a3daafe3b4186f6b6457e060405160405180910390a3806000806101000a81548173ffffffffffffffffffffffffffffffffffffffff021916908373ffffffffffffffffffffffffffffffffffffffff16021790555050565b828054600181600116156101000203166002900490600052602060002090601f016020900481019282601f10610d1457805160ff1916838001178555610d42565b82800160010185558215610d42579182015b82811115610d41578251825591602001919060010190610d26565b5b509050610d4f9190610d53565b5090565b610d7591905b80821115610d71576000816000905550600101610d59565b5090565b9056fea265627a7a7231582016d071dfe23d7307fbfd2472581183f41dd5ae11801ad36be1bc3778a71c3f4964736f6c63430005100032",
  "source": "pragma solidity >=0.5.0 <0.6.0;\n\nimport './ownable.sol';\nimport './safemath.sol';\n\ncontract WineFactory is Ownable {\n\n    using SafeMath for uint256;\n    using SafeMath32 for uint32;\n    using SafeMath16 for uint16;\n\n    mapping (uint256 => address) wineBottleToOwner;\n    mapping (address => uint256) ownerWineCount;\n\n    event NewBottle(uint wineId, string producer, string varietal, string country_of_origin, uint16 vintage);\n\n    struct WineBottle {\n        string producer; // Wine Vineyard / Maker\n        string varietal; // Red blend, Pinot, or Grape Style (Riesling), etc.\n        string country_of_origin;\n        uint16 vintage; // Grape vintage\n        bool consumed; // Whether the wine has been consumed...\n        // uint256 uuid; // Unique wine identifying id --> does this need to be included?\n    }\n\n    WineBottle[] public wines;\n\n    function addWineToChain(string memory _producer, string memory _varietal, string memory _country, uint16 vintage) public {\n        // Check if the adding party is a valid producer...?\n        uint id = wines.push(WineBottle(_producer, _varietal, _country, vintage, false)) - 1;\n        wineBottleToOwner[id] = msg.sender;\n        ownerWineCount[msg.sender] = ownerWineCount[msg.sender].add(1);\n        emit NewBottle(id, _producer, _varietal, _country, vintage);\n    }\n}",
  "sourcePath": "/Users/brandt/Documents/code/CS481/WineChain/contracts/winefactory.sol",
  "compiler": {
    "name": "solc",
    "version": "0.5.16+commit.9c3226ce.Emscripten.clang"
  },
  "schemaVersion": "3.0.23",
  "updatedAt": "2020-04-13T19:16:59.776Z",
  "devdoc": {
    "methods": {
      "isOwner()": {
        "return": "true if `msg.sender` is the owner of the contract."
      },
      "owner()": {
        "return": "the address of the owner."
      },
      "renounceOwnership()": {
        "details": "Allows the current owner to relinquish control of the contract."
      },
      "transferOwnership(address)": {
        "details": "Allows the current owner to transfer control of the contract to a newOwner.",
        "params": {
          "newOwner": "The address to transfer ownership to."
        }
      }
    }
  },
  "userdoc": {
    "methods": {
      "renounceOwnership()": {
        "notice": "Renouncing to ownership will leave the contract without an owner. It will not be possible to call the functions with the `onlyOwner` modifier anymore."
      }
    }
  }
}